S01300004453313330375F746573742E7372656390
S113000045C0000053C0000051C000004FC00000B4
S11300104DC000004BC0000049C0000047C00000B4
S113002045C0000043C0000041C000003FC00000C4
S11300303DC000003BC0000039C0000037C00000D4
S113004035C0000033C0000031C000002FC00000E4
S11300502DC000002BC0000029C0000027C00000F4
S113006025C0000023C0000021C000001FC0000004
S11300701DC000001BC0000019C0000017C0000014
S113008015C0000013C0000011C0000011241FBEE1
S1130090CFEFD0E1DEBFCDBF21E0A0E0B1E001C0F1
S11300A01D92A730B207E1F70DD061C1A9CF982FF7
S11300B092959F70990F292F220F220F920F8F7004
S11300C0890F089503D188E090E041D1CDEC60ED33
S11300D080E018D12FEF89E698E1215080409040CC
S11300E0E1F700C00000F6D081ED01D11AD1809370
S11300F0050117D18093030114D18093020111D11A
S1130100809300010ED1809306010BD180930101ED
S113011013D180930401E7D080910501C8DF809357
S1130120050180910301C3DF8093030180910201E3
S1130130BEDF8093020180910001B9DF809300014A
S113014080910601B4DF8093060180910101AFDF45
S11301508093010180910401AADF809304018091BE
S113016006018C9F812D1124869586958695805D48
S1130170FAD0809106018C9F912D11249695969525
S11301809695990F292F220F220F920F891B805DBC
S1130190EAD08EE2E8D0809101018C9F812D112458
S11301A0869586958695805DDED0809101018C9F31
S11301B0912D1124969596959695990F292F220F96
S11301C0220F920F891B805DCED08EE2CCD080911D
S11301D004018C9F812D1124869586958695805DDA
S11301E0C2D0809104018C9F912D112496959695EF
S11301F09695990F292F220F220F920F891B805D4C
S1130200B2D080E2B0D08DE2AED080910601805DA4
S1130210AAD08DE2A8D080E2A6D080E2A4D08091BA
S113022002018C9F812D1124869586958695805D8B
S11302309AD0809102018C9F912D112496959695C8
S11302409695990F292F220F220F920F891B805DFB
S11302508AD08AE388D0809103018C9F812D112458
S1130260869586958695805D7ED0809103018C9FCE
S1130270912D1124969596959695990F292F220FD5
S1130280220F920F891B805D6ED08AE36CD080911F
S113029005018C9F812D1124869586958695805D18
S11302A062D0809105018C9F912D1124969596958D
S11302B09695990F292F220F220F920F891B805D8B
S11302C052D08DE050D08AE04ED001CF80E28093AE
S11302D07000089584EA80937400E4E7F0E080817C
S11302E08823ECF7089584E980937400089580933B
S11302F0730084E880937400E4E7F0E0808188234D
S1130300ECF70895CF93DF93C82FD62FE3DF8D2F1B
S1130310EEDF8C2FECDF84E980937400DF91CF91C2
S1130320089584EC80937400E4E7F0E080818823EE
S1130330ECF780917300089584E880937400E4E7F7
S1130340F0E080818823ECF7809173000895909306
S1130350900089B98AB188618AB9579A599A8EE00E
S11303608093950008955D9BFECF8CB90895F89411
S1050370FFCFB9
S9030000FC
