S0130000454550524F4D5F746573742E737265632A
S113000045C0000060C000005EC000005CC000008D
S11300105AC0000058C0000056C0000054C0000080
S113002052C0000050C000004EC000004CC0000090
S11300304AC0000048C0000046C0000044C00000A0
S113004042C0000040C000003EC000003CC00000B0
S11300503AC0000038C0000036C0000034C00000C0
S113006032C0000030C000002EC000002CC00000D0
S11300702AC0000028C0000026C0000024C00000E0
S113008022C0000020C000001EC0000011241FBEBA
S1130090CFEFD0E1DEBFCDBF21E0A6E0B1E001C0EB
S11300A01D92A131B207E1F711E0A0E0B1E0E4E66E
S11300B0F6E000E00BBF02C007900D92A630B10736
S11300C0D9F769D0CDC29CCFE199FECF9FBB8EBB3F
S11300D0E09A8DB308950F931F93CF93DF938C0110
S11300E00196F2DFC82FD0E0DC2FCC270000C80136
S11300F0EBDF9E01280F311DC901DF91CF911F91C4
S11301000F910895CF92DF92EF92FF92CF93DF93F6
S1130110EC010296E0DF6C01E12CF12C7601DD2488
S1130120CC240000CE01D7DFA7019601280F391F88
S1130130411D511DCA01B901DF91CF91FF90EF908C
S1130140DF90CF900895CF92DF92EF92FF920F93BA
S11301501F93CF93DF937C018B0180E090E076D0F6
S11301606C010115110569F0080F191FEC01E81A5B
S1130170F90AC7018C0F9D1FA7DF8993C017D10708
S1130180C1F7C601DF91CF911F910F91FF90EF90BE
S1130190DF90CF90089588E090E048D0000081E09F
S11301A090E092DF80930A014DD08DE04BD08AE03D
S11301B049D083E090E08FDF80930B0190930C0192
S11301C0892F40D080910B013DD08DE03BD08AE057
S11301D039D087E090E096DF6093060170930701C1
S11301E08093080190930901892F2CD080910801F4
S11301F029D08091070126D08091060123D08DE07B
S113020021D08AE01FD06DE070E080E190E09BDFB8
S1130210EC018C01035F1F4F899114D0C017D107E3
S1130220D9F78DE00FD08AE00DD0FFCF90939000E6
S113023089B98AB188618AB9579A599A8EE08093AC
S1130240950008955D9BFECF8CB908956F927F92BF
S11302508F929F92AF92BF92CF92DF92EF92FF92D2
S11302600F931F93CF93DF93009781F4CB01DF911A
S1130270CF911F910F91FF90EF90DF90CF90BF909F
S1130280AF909F908F907F906F90C9C0FC01E60F54
S1130290F71F9C0122503109E217F30708F4A5C0A7
S11302A0EC01D9010D911C91119706171707A8F0BD
S11302B00530110508F497C0C801049786179707FD
S11302C008F491C002501109061B170B01931193F6
S11302D06D937C93CF013BD186C05B01A01AB10A18
S11302E04C01800E911EA0910F01B0911001612C60
S11302F0712CE12CF12C109709F446C08D919C913E
S11303001197A815B905B1F56C0142E0C40ED11CD2
S1130310CA14DB0478F14C018A189B08640142E09A
S1130320C40ED11C1296BC9012971396AC91B5E0F2
S1130330CB16D10440F0B282A38391828082D9018A
S11303406D937C9309C00E5F1F4F800F911FF901BD
S113035091838083EB2DFA2FE114F10431F0D7015E
S11303601396FC93EE9312973EC0F0931001E09322
S11303700F0139C06816790608F43C017D01129614
S11303800D90BC91A02DB7CF80910D0190910E01DD
S113039088169906E1F466167706C8F48091000180
S11303A090910101009741F48DB79EB740910401EB
S11303B050910501841B950BE817F907B0F4F093ED
S11303C00E01E0930D01F901718360830CC0CB0130
S11303D026D07C01009749F0A801BE0117D0CE01B8
S11303E0B6D0C70104C0CE0102C080E090E0DF9126
S11303F0CF911F910F91FF90EF90DF90CF90BF901E
S1130400AF909F908F907F906F900895FB01DC01D7
S113041002C001900D9241505040D8F708950F93B7
S11304201F93CF93DF938230910510F482E090E024
S1130430E0910F01F091100120E030E0A0E0B0E085
S1130440309719F14081518102811381481759076E
S1130450C8F08417950769F4109731F012960C933D
S1130460129713961C9327C000930F011093100149
S113047022C02115310519F04217530718F49A01C7
S1130480BD01EF01DF01F801DBCF21153105F9F0E2
S1130490281B390B2430310580F48A819B81611536
S11304A0710521F0FB019383828304C090931001B2
S11304B080930F01FE01329644C0FE01E20FF31F48
S11304C08193919322503109398328833AC0209132
S11304D00D0130910E01232B41F420910201309142
S11304E0030130930E0120930D01209100013091FE
S11304F001012115310541F42DB73EB740910401A6
S113050050910501241B350BE0910D01F0910E0172
S1130510E217F307A0F42E1B3F0B2817390778F0D6
S1130520AC014E5F5F4F2417350748F04E0F5F1F35
S113053050930E0140930D018193919302C0E0E02A
S1130540F0E0CF01DF91CF911F910F910895CF93E8
S1130550DF93009709F481C0FC0132971382128261
S1130560A0910F01B0911001109781F42081318185
S1130570820F931F20910D0130910E012817390726
S113058051F5F0930E01E0930D0167C0ED0120E0F9
S113059030E0CE17DF0740F44A815B819E014115AC
S11305A05105F1F0EA01F5CFD383C2834081518133
S11305B0840F951FC817D90759F488819981840F2E
S11305C0951F0296918380838A819B819383828382
S11305D02115310529F4F0931001E0930F013DC07A
S11305E0E901FB83EA8349915991C40FD51FEC17A4
S11305F0FD0761F480819181840F951F0296E901C2
S113060099838883828193819B838A83E0E0F0E0ED
S113061012968D919C911397009719F0FD01DC01BE
S1130620F7CF8D919C9111979D012E5F3F4F820FC3
S1130630931F20910D0130910E012817390769F499
S1130640309729F41092100110920F0102C0138206
S11306501282B0930E01A0930D01DF91CF91089502
S1070660F894FFCF38
S10906640000110120005A
S9030000FC
