S01100006D3132385F377365672E7372656336
S113000045C0000060C000005EC000005CC000008D
S11300105AC0000058C0000056C0000054C0000080
S113002052C0000050C000004EC000004CC0000090
S1130030AEC0000048C0000046C0000044C000003C
S113004042C0000040C000003EC000003CC00000B0
S11300503AC0000038C0000036C0000034C00000C0
S113006032C0000030C000002EC000002CC00000D0
S11300702AC0000028C0000026C0000024C00000E0
S113008022C0000020C000001EC0000011241FBEBA
S1130090CFEFD0E1DEBFCDBF11E0A0E0B1E0E8EAF0
S11300A0F2E000E00BBF02C007900D92AE30B10742
S11300B0D9F721E0AEE0B1E001C01D92A531B2074D
S11300C0E1F73ED0EFC09CCFCF93DF93AC01FB01AF
S11300D0EB0124969A01ADECBCECD5D096958795AE
S11300E096958795969587959C01220F331F880FC7
S11300F0991F880F991F880F991F820F931F9A01C8
S1130100281B390B21939A01BED0AC015695479513
S11301105695479556954795CE17DF07D9F6DF9143
S1130120CF9108958EB588608EBD87B7806187BFF3
S11301308CE08BBD85E38ABD8EB582608EBD08954B
S11301408FEF84BB85BB8FE08ABB7894EBDF109282
S113015014011092130180E090E06EE071E0B4DFCE
S11301602FEF80E792E0215080409040E1F700C0FB
S11301700000809113019091140101969093140151
S113018080931301803127E2920738F3E0CF1F9266
S11301900F920FB60F9211240BB60F922F938F93D9
S11301A09F93EF93FF9380911201813099F028F08F
S11301B0823041F18330E1F150C081E08BBBE091AA
S11301C00001F0910101E081F0E0EE5FFE4F8081DB
S11301D085BB43C080911301909114010A9718F0D4
S11301E082E08BBB01C01BBAE0910001F0910101D8
S11301F0E181F0E0EE5FFE4F908180910C01892354
S113020085BB2BC080911301909114018436910514
S113021018F084E08BBB01C01BBAE0910001F0919F
S11302200101E281F0E0EE5FFE4F808185BB15C0E5
S11302308091130190911401883E934018F088E056
S11302408BBB01C01BBAE0910001F0910101E38175
S1130250F0E0EE5FFE4F808185BB809112018F5FDD
S1130260843018F48093120102C010921201FF919D
S1130270EF919F918F912F910F900BBE0F900FBE16
S11302800F901F901895A29FB001B39FC001A39F28
S1130290700D811D1124911DB29F700D811D1124BB
S10B02A0911D0895F894FFCFAD
S11102A80E01C0F9A4B0999282F880907F00F4
S9030000FC
