S016000055534152545F4C43445F746573742E737265632E
S113000045C0000060C000005EC000005CC000008D
S11300105AC0000058C0000056C0000054C0000080
S113002052C0000050C000004EC000004CC0000090
S11300304AC0000048C0000046C0000044C00000A0
S113004042C0000040C00000E3C000003CC000000B
S11300503AC0000038C0000036C0000034C00000C0
S113006032C0000030C000002EC000002CC00000D0
S11300702AC0000028C0000026C0000024C00000E0
S113008022C0000020C000001EC0000011241FBEBA
S1130090CFEFD0E1DEBFCDBF11E0A0E0B1E0EAEFE9
S11300A0F2E000E00BBF02C007900D92A630B1074A
S11300B0D9F721E0A6E0B1E001C01D92AA35B2074C
S11300C0E1F7E2D018C19CCF939A92B39F7092BB90
S11300D092B38295807F982B92BB85E88A95F1F73D
S11300E00000939885E88A95F1F700000895CF936E
S11300F0C82F82958F70611102C0929801C0929AA4
S1130100E3DF8C2FE1DFCF91089561E0F0CF089514
S113011090E4699F800D112460E08068E8CF089521
S11301208FE39CE90197F1F700C0000083E0CCDF86
S11301308FE097E20197F1F700C0000083E0C4DF8D
S11301408BE291E00197F1F700C0000083E0BCDF8F
S11301509AE69A95F1F700C082E0B6DF8AE68A95BE
S1130160F1F700C082E0B0DF8CE0AEDF9AE69A954A
S1130170F1F700C080E0A8DF88E0A6DF8AE68A9570
S1130180F1F700C080E0A0DF81E09EDF8FE09EE019
S11301900197F1F700C0000080E096DF86E094DF6D
S11301A09AE69A95F1F700C080E08EDF8CE08CDF50
S11301B08AE68A95F1F700C00895CF93DF93EC01A6
S11301C08881882329F02196A0DF89918111FCCFB1
S11301D0DF91CF91089560E081E089DF8FE99FE0AE
S11301E00197F1F700C0000008953CB18FEC97E04F
S11301F00197F1F700C000002CB181E090E03217C4
S113020011F080E090E008958CEF81BB12BA08955C
S11302101F920F920FB60F9211240BB60F922F93C9
S11302203F938F939F93EF93FF938CB1E0910201DF
S1130230F091030190E09183808380910201909179
S1130240030102969093030180930201209104011B
S1130250309105012817390730F486E091E0909336
S11302600301809302011092010110920001FF9199
S1130270EF919F918F913F912F910F900BBE0F9013
S11302800FBE0F901F901895BFDF4ADF80E190E00A
S113029022D078948FE42BD08BE629D081E227D02A
S11302A08DE025D08AE023D0C1E0D0E09EDF892B09
S11302B0E9F38091000190910101892BB9F78BDF5B
S11302C060E080E025DF86E091E077DFD0930101F4
S11302D0C0930001EBCF9093900089B98AB18861F3
S11302E08AB9579A599A8EE08093950008955D9B38
S10D02F0FECF8CB90895F894FFCFF7
S10902FA01000601580199
S9030000FC
