:1000000045C0000058C0000056C0000054C00000A9
:1000100052C0000050C000004EC000004CC00000A4
:100020004AC0000048C0000046C0000044C00000B4
:1000300042C0000040C000003EC000003CC00000C4
:100040003AC0000038C0000036C0000034C00000D4
:1000500032C0000030C000002EC000002CC00000E4
:100060002AC0000028C0000026C0000024C00000F4
:1000700022C0000020C000001EC000001CC0000004
:100080001AC0000018C0000016C0000011241FBED6
:10009000CFEFD0E1DEBFCDBF11E0A0E0B1E0ECE6F4
:1000A000F2E000E00BBF02C007900D92AC33B10745
:1000B000D9F78DD0D9C0A4CF939A92B39F7092BB39
:1000C00092B38295807F982B92BB85E88A95F1F751
:1000D0000000939885E88A95F1F700000895CF9382
:1000E000C82F82958F70611102C0929801C0929AB8
:1000F000E3DF8C2FE1DFCF91089561E0F0CF089529
:1001000090E4699F800D112460E08068E8CF089535
:100110008FE39CE90197F1F700C0000083E0CCDF9A
:100120008FE097E20197F1F700C0000083E0C4DFA1
:100130008BE291E00197F1F700C0000083E0BCDFA3
:100140009AE69A95F1F700C082E0B6DF8AE68A95D2
:10015000F1F700C082E0B0DF8CE0AEDF9AE69A955E
:10016000F1F700C080E0A8DF88E0A6DF8AE68A9584
:10017000F1F700C080E0A0DF81E09EDF8FE09EE02D
:100180000197F1F700C0000080E096DF86E094DF81
:100190009AE69A95F1F700C080E08EDF8CE08CDF64
:1001A0008AE68A95F1F700C00895CF93DF93EC01BA
:1001B0008881882329F02196A0DF89918111FCCFC5
:1001C000DF91CF9108958CEF81BB12BA0895FBDFC8
:1001D0009FDF60E080E094DF80E091E0E6DF61E0B7
:1001E00080E08EDF85E191E0E0DF61E080E088DFA4
:1001F0002FEF84E39CE0215080409040E1F700C065
:10020000000087E291E0D1DF61E083E179DF61E026
:1002100081E265DFC2E201C0C1E22FEF84E39CE02E
:10022000215080409040E1F700C0000061E080E094
:1002300067DF85E191E0B9DF61E080E061DF2FEF0A
:1002400084E39CE0215080409040E1F700C0000032
:1002500087E291E0AADF61E083E152DF61E08C2F69
:0C0260003EDFCF5FD2F6D8CFF894FFCF7E
:10026C00506176656C204B7261736E6F7065726F46
:10027C0076203D2900596F75206172652074686580
:10028C002062657374210020202020202020202053
:0C029C00202020202020202020202000F6
:00000001FF
